{
  "_format": "hh-sol-artifact-1",
  "contractName": "PNFT",
  "sourceName": "contracts/PNFT.sol",
  "abi": [
    {
      "inputs": [],
      "stateMutability": "nonpayable",
      "type": "constructor"
    },
    {
      "anonymous": false,
      "inputs": [
        {
          "indexed": true,
          "internalType": "address",
          "name": "owner",
          "type": "address"
        },
        {
          "indexed": true,
          "internalType": "address",
          "name": "approved",
          "type": "address"
        },
        {
          "indexed": true,
          "internalType": "uint256",
          "name": "tokenId",
          "type": "uint256"
        }
      ],
      "name": "Approval",
      "type": "event"
    },
    {
      "anonymous": false,
      "inputs": [
        {
          "indexed": true,
          "internalType": "address",
          "name": "owner",
          "type": "address"
        },
        {
          "indexed": true,
          "internalType": "address",
          "name": "operator",
          "type": "address"
        },
        {
          "indexed": false,
          "internalType": "bool",
          "name": "approved",
          "type": "bool"
        }
      ],
      "name": "ApprovalForAll",
      "type": "event"
    },
    {
      "anonymous": false,
      "inputs": [
        {
          "indexed": true,
          "internalType": "address",
          "name": "previousOwner",
          "type": "address"
        },
        {
          "indexed": true,
          "internalType": "address",
          "name": "newOwner",
          "type": "address"
        }
      ],
      "name": "OwnershipTransferred",
      "type": "event"
    },
    {
      "anonymous": false,
      "inputs": [
        {
          "indexed": true,
          "internalType": "address",
          "name": "from",
          "type": "address"
        },
        {
          "indexed": true,
          "internalType": "address",
          "name": "to",
          "type": "address"
        },
        {
          "indexed": true,
          "internalType": "uint256",
          "name": "tokenId",
          "type": "uint256"
        }
      ],
      "name": "Transfer",
      "type": "event"
    },
    {
      "inputs": [
        {
          "internalType": "address",
          "name": "to",
          "type": "address"
        },
        {
          "internalType": "uint256",
          "name": "tokenId",
          "type": "uint256"
        }
      ],
      "name": "approve",
      "outputs": [],
      "stateMutability": "nonpayable",
      "type": "function"
    },
    {
      "inputs": [
        {
          "internalType": "address",
          "name": "owner",
          "type": "address"
        }
      ],
      "name": "balanceOf",
      "outputs": [
        {
          "internalType": "uint256",
          "name": "",
          "type": "uint256"
        }
      ],
      "stateMutability": "view",
      "type": "function"
    },
    {
      "inputs": [
        {
          "internalType": "uint256",
          "name": "tokenId",
          "type": "uint256"
        }
      ],
      "name": "getApproved",
      "outputs": [
        {
          "internalType": "address",
          "name": "",
          "type": "address"
        }
      ],
      "stateMutability": "view",
      "type": "function"
    },
    {
      "inputs": [],
      "name": "getRandomNumber",
      "outputs": [
        {
          "internalType": "bytes32",
          "name": "requestId",
          "type": "bytes32"
        }
      ],
      "stateMutability": "nonpayable",
      "type": "function"
    },
    {
      "inputs": [
        {
          "internalType": "address",
          "name": "owner",
          "type": "address"
        },
        {
          "internalType": "address",
          "name": "operator",
          "type": "address"
        }
      ],
      "name": "isApprovedForAll",
      "outputs": [
        {
          "internalType": "bool",
          "name": "",
          "type": "bool"
        }
      ],
      "stateMutability": "view",
      "type": "function"
    },
    {
      "inputs": [],
      "name": "maxPlayers",
      "outputs": [
        {
          "internalType": "uint256",
          "name": "",
          "type": "uint256"
        }
      ],
      "stateMutability": "view",
      "type": "function"
    },
    {
      "inputs": [],
      "name": "maxTokens",
      "outputs": [
        {
          "internalType": "uint256",
          "name": "",
          "type": "uint256"
        }
      ],
      "stateMutability": "view",
      "type": "function"
    },
    {
      "inputs": [],
      "name": "mintNFT",
      "outputs": [],
      "stateMutability": "payable",
      "type": "function"
    },
    {
      "inputs": [],
      "name": "name",
      "outputs": [
        {
          "internalType": "string",
          "name": "",
          "type": "string"
        }
      ],
      "stateMutability": "view",
      "type": "function"
    },
    {
      "inputs": [],
      "name": "owner",
      "outputs": [
        {
          "internalType": "address",
          "name": "",
          "type": "address"
        }
      ],
      "stateMutability": "view",
      "type": "function"
    },
    {
      "inputs": [
        {
          "internalType": "uint256",
          "name": "tokenId",
          "type": "uint256"
        }
      ],
      "name": "ownerOf",
      "outputs": [
        {
          "internalType": "address",
          "name": "",
          "type": "address"
        }
      ],
      "stateMutability": "view",
      "type": "function"
    },
    {
      "inputs": [],
      "name": "price",
      "outputs": [
        {
          "internalType": "uint256",
          "name": "",
          "type": "uint256"
        }
      ],
      "stateMutability": "view",
      "type": "function"
    },
    {
      "inputs": [
        {
          "internalType": "bytes32",
          "name": "requestId",
          "type": "bytes32"
        },
        {
          "internalType": "uint256",
          "name": "randomness",
          "type": "uint256"
        }
      ],
      "name": "rawFulfillRandomness",
      "outputs": [],
      "stateMutability": "nonpayable",
      "type": "function"
    },
    {
      "inputs": [],
      "name": "renounceOwnership",
      "outputs": [],
      "stateMutability": "nonpayable",
      "type": "function"
    },
    {
      "inputs": [
        {
          "internalType": "address",
          "name": "from",
          "type": "address"
        },
        {
          "internalType": "address",
          "name": "to",
          "type": "address"
        },
        {
          "internalType": "uint256",
          "name": "tokenId",
          "type": "uint256"
        }
      ],
      "name": "safeTransferFrom",
      "outputs": [],
      "stateMutability": "nonpayable",
      "type": "function"
    },
    {
      "inputs": [
        {
          "internalType": "address",
          "name": "from",
          "type": "address"
        },
        {
          "internalType": "address",
          "name": "to",
          "type": "address"
        },
        {
          "internalType": "uint256",
          "name": "tokenId",
          "type": "uint256"
        },
        {
          "internalType": "bytes",
          "name": "_data",
          "type": "bytes"
        }
      ],
      "name": "safeTransferFrom",
      "outputs": [],
      "stateMutability": "nonpayable",
      "type": "function"
    },
    {
      "inputs": [
        {
          "internalType": "address",
          "name": "operator",
          "type": "address"
        },
        {
          "internalType": "bool",
          "name": "approved",
          "type": "bool"
        }
      ],
      "name": "setApprovalForAll",
      "outputs": [],
      "stateMutability": "nonpayable",
      "type": "function"
    },
    {
      "inputs": [
        {
          "internalType": "uint256",
          "name": "newPrice",
          "type": "uint256"
        }
      ],
      "name": "setPrice",
      "outputs": [],
      "stateMutability": "nonpayable",
      "type": "function"
    },
    {
      "inputs": [
        {
          "internalType": "bytes4",
          "name": "interfaceId",
          "type": "bytes4"
        }
      ],
      "name": "supportsInterface",
      "outputs": [
        {
          "internalType": "bool",
          "name": "",
          "type": "bool"
        }
      ],
      "stateMutability": "view",
      "type": "function"
    },
    {
      "inputs": [],
      "name": "symbol",
      "outputs": [
        {
          "internalType": "string",
          "name": "",
          "type": "string"
        }
      ],
      "stateMutability": "view",
      "type": "function"
    },
    {
      "inputs": [
        {
          "internalType": "uint256",
          "name": "tokenId",
          "type": "uint256"
        }
      ],
      "name": "tokenURI",
      "outputs": [
        {
          "internalType": "string",
          "name": "",
          "type": "string"
        }
      ],
      "stateMutability": "view",
      "type": "function"
    },
    {
      "inputs": [
        {
          "internalType": "address",
          "name": "from",
          "type": "address"
        },
        {
          "internalType": "address",
          "name": "to",
          "type": "address"
        },
        {
          "internalType": "uint256",
          "name": "tokenId",
          "type": "uint256"
        }
      ],
      "name": "transferFrom",
      "outputs": [],
      "stateMutability": "nonpayable",
      "type": "function"
    },
    {
      "inputs": [
        {
          "internalType": "address",
          "name": "friend",
          "type": "address"
        },
        {
          "internalType": "uint256",
          "name": "_tokenId",
          "type": "uint256"
        }
      ],
      "name": "transferNFT",
      "outputs": [],
      "stateMutability": "nonpayable",
      "type": "function"
    },
    {
      "inputs": [
        {
          "internalType": "address",
          "name": "newOwner",
          "type": "address"
        }
      ],
      "name": "transferOwnership",
      "outputs": [],
      "stateMutability": "nonpayable",
      "type": "function"
    },
    {
      "inputs": [],
      "name": "withdrawAll",
      "outputs": [],
      "stateMutability": "nonpayable",
      "type": "function"
    },
    {
      "inputs": [
        {
          "internalType": "uint256",
          "name": "_tokenId",
          "type": "uint256"
        }
      ],
      "name": "writeSVG",
      "outputs": [],
      "stateMutability": "nonpayable",
      "type": "function"
    }
  ],
  "bytecode": "0x60c06040526115b3600d55600a600e556000600f553480156200002157600080fd5b5073b3dccb4cf7a26f6cf6b120cf5a73875b7bbc655b7301be23585060835e02b77ef475b0cc51aa1e07096040518060400160405280600a81526020017f506173735468654e4654000000000000000000000000000000000000000000008152506040518060400160405280600481526020017f504e4654000000000000000000000000000000000000000000000000000000008152508160009080519060200190620000d092919062000289565b508060019080519060200190620000e992919062000289565b5050506200010c62000100620001bb60201b60201c565b620001c360201b60201c565b8173ffffffffffffffffffffffffffffffffffffffff1660a08173ffffffffffffffffffffffffffffffffffffffff1660601b815250508073ffffffffffffffffffffffffffffffffffffffff1660808173ffffffffffffffffffffffffffffffffffffffff1660601b8152505050507f2ed0feb3e7fd2022120aa84fab1945545a9f2ffc9076fd6156fa96eaff4c131160001b600a8190555067016345785d8a0000600b819055506200039e565b600033905090565b6000600760009054906101000a900473ffffffffffffffffffffffffffffffffffffffff16905081600760006101000a81548173ffffffffffffffffffffffffffffffffffffffff021916908373ffffffffffffffffffffffffffffffffffffffff1602179055508173ffffffffffffffffffffffffffffffffffffffff168173ffffffffffffffffffffffffffffffffffffffff167f8be0079c531659141344cd1fd0a4f28419497f9722a3daafe3b4186f6b6457e060405160405180910390a35050565b828054620002979062000339565b90600052602060002090601f016020900481019282620002bb576000855562000307565b82601f10620002d657805160ff191683800117855562000307565b8280016001018555821562000307579182015b8281111562000306578251825591602001919060010190620002e9565b5b5090506200031691906200031a565b5090565b5b80821115620003355760008160009055506001016200031b565b5090565b600060028204905060018216806200035257607f821691505b602082108114156200036957620003686200036f565b5b50919050565b7f4e487b7100000000000000000000000000000000000000000000000000000000600052602260045260246000fd5b60805160601c60a05160601c614ce2620003d16000396000818161108601526127d5015260006127990152614ce26000f3fe6080604052600436106101815760003560e01c80638da5cb5b116100d1578063a22cb4651161008a578063dbdff2c111610064578063dbdff2c114610537578063e831574214610562578063e985e9c51461058d578063f2fde38b146105ca57610181565b8063a22cb465146104a8578063b88d4fde146104d1578063c87b56dd146104fa57610181565b80638da5cb5b146103ac57806391b7f5ed146103d757806394985ddd1461040057806394ab67fe1461042957806395d89b4114610452578063a035b1fe1461047d57610181565b806326d99dd91161013e5780636352211e116101185780636352211e1461030457806370a0823114610341578063715018a61461037e578063853828b61461039557610181565b806326d99dd91461028757806342842e0e146102b05780634c2412a2146102d957610181565b806301ffc9a71461018657806306fdde03146101c3578063081812fc146101ee578063095ea7b31461022b57806314f710fe1461025457806323b872dd1461025e575b600080fd5b34801561019257600080fd5b506101ad60048036038101906101a89190613157565b6105f3565b6040516101ba9190613fa6565b60405180910390f35b3480156101cf57600080fd5b506101d86106d5565b6040516101e5919061404a565b60405180910390f35b3480156101fa57600080fd5b50610215600480360381019061021091906131a9565b610767565b6040516102229190613f01565b60405180910390f35b34801561023757600080fd5b50610252600480360381019061024d91906130b6565b6107ec565b005b61025c610904565b005b34801561026a57600080fd5b5061028560048036038101906102809190612fb0565b610ac1565b005b34801561029357600080fd5b506102ae60048036038101906102a991906131a9565b610b21565b005b3480156102bc57600080fd5b506102d760048036038101906102d29190612fb0565b610d00565b005b3480156102e557600080fd5b506102ee610d20565b6040516102fb91906143b6565b60405180910390f35b34801561031057600080fd5b5061032b600480360381019061032691906131a9565b610d26565b6040516103389190613f01565b60405180910390f35b34801561034d57600080fd5b5061036860048036038101906103639190612f4b565b610dd8565b60405161037591906143b6565b60405180910390f35b34801561038a57600080fd5b50610393610e90565b005b3480156103a157600080fd5b506103aa610f18565b005b3480156103b857600080fd5b506103c1610fd4565b6040516103ce9190613f01565b60405180910390f35b3480156103e357600080fd5b506103fe60048036038101906103f991906131a9565b610ffe565b005b34801561040c57600080fd5b506104276004803603810190610422919061311b565b611084565b005b34801561043557600080fd5b50610450600480360381019061044b91906130b6565b611120565b005b34801561045e57600080fd5b506104676112f7565b604051610474919061404a565b60405180910390f35b34801561048957600080fd5b50610492611389565b60405161049f91906143b6565b60405180910390f35b3480156104b457600080fd5b506104cf60048036038101906104ca919061307a565b61138f565b005b3480156104dd57600080fd5b506104f860048036038101906104f39190612fff565b6113a5565b005b34801561050657600080fd5b50610521600480360381019061051c91906131a9565b611407565b60405161052e919061404a565b60405180910390f35b34801561054357600080fd5b5061054c611559565b6040516105599190613fc1565b60405180910390f35b34801561056e57600080fd5b506105776115ea565b60405161058491906143b6565b60405180910390f35b34801561059957600080fd5b506105b460048036038101906105af9190612f74565b6115f0565b6040516105c19190613fa6565b60405180910390f35b3480156105d657600080fd5b506105f160048036038101906105ec9190612f4b565b611684565b005b60007f80ac58cd000000000000000000000000000000000000000000000000000000007bffffffffffffffffffffffffffffffffffffffffffffffffffffffff1916827bffffffffffffffffffffffffffffffffffffffffffffffffffffffff191614806106be57507f5b5e139f000000000000000000000000000000000000000000000000000000007bffffffffffffffffffffffffffffffffffffffffffffffffffffffff1916827bffffffffffffffffffffffffffffffffffffffffffffffffffffffff1916145b806106ce57506106cd8261177c565b5b9050919050565b6060600080546106e49061489f565b80601f01602080910402602001604051908101604052809291908181526020018280546107109061489f565b801561075d5780601f106107325761010080835404028352916020019161075d565b820191906000526020600020905b81548152906001019060200180831161074057829003601f168201915b5050505050905090565b6000610772826117e6565b6107b1576040517f08c379a00000000000000000000000000000000000000000000000000000000081526004016107a890614296565b60405180910390fd5b6004600083815260200190815260200160002060009054906101000a900473ffffffffffffffffffffffffffffffffffffffff169050919050565b60006107f782610d26565b90508073ffffffffffffffffffffffffffffffffffffffff168373ffffffffffffffffffffffffffffffffffffffff161415610868576040517f08c379a000000000000000000000000000000000000000000000000000000000815260040161085f90614356565b60405180910390fd5b8073ffffffffffffffffffffffffffffffffffffffff16610887611852565b73ffffffffffffffffffffffffffffffffffffffff1614806108b657506108b5816108b0611852565b6115f0565b5b6108f5576040517f08c379a00000000000000000000000000000000000000000000000000000000081526004016108ec906141b6565b60405180910390fd5b6108ff838361185a565b505050565b600f54341015610949576040517f08c379a000000000000000000000000000000000000000000000000000000000815260040161094090614336565b60405180910390fd5b600d546109566009611913565b10610996576040517f08c379a000000000000000000000000000000000000000000000000000000000815260040161098d90614276565b60405180910390fd5b600060016109a46009611913565b6109ae9190614475565b90506000601060008381526020019081526020016000209050818160000181905550338160010160006101000a81548173ffffffffffffffffffffffffffffffffffffffff021916908373ffffffffffffffffffffffffffffffffffffffff160217905550338160020160006101000a81548173ffffffffffffffffffffffffffffffffffffffff021916908373ffffffffffffffffffffffffffffffffffffffff1602179055506000816003018190555060008160040160006101000a81548160ff021916908315150217905550610a873383611921565b610a9082610b21565b610ab3604051806060016040528060258152602001614c4860259139833361193f565b610abd60096119de565b5050565b610ad2610acc611852565b826119f4565b610b11576040517f08c379a0000000000000000000000000000000000000000000000000000000008152600401610b0890614376565b60405180910390fd5b610b1c838383611ad2565b505050565b60006010600083815260200190815260200160002090506000816000015490506000610b708360010160009054906101000a900473ffffffffffffffffffffffffffffffffffffffff16611d2e565b905060606000610b838560000154611f63565b90506000610b948660030154611f63565b9050600115158660040160009054906101000a900460ff1615151415610c0a57610be18660040160019054906101000a900473ffffffffffffffffffffffffffffffffffffffff16611d2e565b925082604051602001610bf49190613e5d565b6040516020818303038152906040529250610c43565b6040518060400160405280600e81526020017f4e6f626f647920776f6e2079657400000000000000000000000000000000000081525092505b6000604051806101a001604052806101698152602001614aad6101699139905060008184878588604051602001610c7e959493929190613ddb565b60405160208183030381529060405290506000610cc385610c9e84612110565b604051602001610caf929190613ea1565b604051602081830303815290604052612110565b9050600081604051602001610cd89190613e7f565b6040516020818303038152906040529050610cf389826122ce565b5050505050505050505050565b610d1b838383604051806020016040528060008152506113a5565b505050565b600e5481565b6000806002600084815260200190815260200160002060009054906101000a900473ffffffffffffffffffffffffffffffffffffffff169050600073ffffffffffffffffffffffffffffffffffffffff168173ffffffffffffffffffffffffffffffffffffffff161415610dcf576040517f08c379a0000000000000000000000000000000000000000000000000000000008152600401610dc6906141f6565b60405180910390fd5b80915050919050565b60008073ffffffffffffffffffffffffffffffffffffffff168273ffffffffffffffffffffffffffffffffffffffff161415610e49576040517f08c379a0000000000000000000000000000000000000000000000000000000008152600401610e40906141d6565b60405180910390fd5b600360008373ffffffffffffffffffffffffffffffffffffffff1673ffffffffffffffffffffffffffffffffffffffff168152602001908152602001600020549050919050565b610e98611852565b73ffffffffffffffffffffffffffffffffffffffff16610eb6610fd4565b73ffffffffffffffffffffffffffffffffffffffff1614610f0c576040517f08c379a0000000000000000000000000000000000000000000000000000000008152600401610f03906142b6565b60405180910390fd5b610f166000612342565b565b610f20611852565b73ffffffffffffffffffffffffffffffffffffffff16610f3e610fd4565b73ffffffffffffffffffffffffffffffffffffffff1614610f94576040517f08c379a0000000000000000000000000000000000000000000000000000000008152600401610f8b906142b6565b60405180910390fd5b3373ffffffffffffffffffffffffffffffffffffffff166108fc479081150290604051600060405180830381858888f19350505050610fd257600080fd5b565b6000600760009054906101000a900473ffffffffffffffffffffffffffffffffffffffff16905090565b611006611852565b73ffffffffffffffffffffffffffffffffffffffff16611024610fd4565b73ffffffffffffffffffffffffffffffffffffffff161461107a576040517f08c379a0000000000000000000000000000000000000000000000000000000008152600401611071906142b6565b60405180910390fd5b80600f8190555050565b7f000000000000000000000000000000000000000000000000000000000000000073ffffffffffffffffffffffffffffffffffffffff163373ffffffffffffffffffffffffffffffffffffffff1614611112576040517f08c379a000000000000000000000000000000000000000000000000000000000815260040161110990614316565b60405180910390fd5b61111c8282612408565b5050565b8173ffffffffffffffffffffffffffffffffffffffff163373ffffffffffffffffffffffffffffffffffffffff16141561118f576040517f08c379a000000000000000000000000000000000000000000000000000000000815260040161118690614396565b60405180910390fd5b3373ffffffffffffffffffffffffffffffffffffffff166111af82610d26565b73ffffffffffffffffffffffffffffffffffffffff16146111cf57600080fd5b600060106000838152602001908152602001600020905060018160030160008282546111fb9190614475565b92505081905550828160020160006101000a81548173ffffffffffffffffffffffffffffffffffffffff021916908373ffffffffffffffffffffffffffffffffffffffff16021790555061124e82612413565b816003015414156112ba5760018160040160006101000a81548160ff021916908315150217905550828160040160016101000a81548173ffffffffffffffffffffffffffffffffffffffff021916908373ffffffffffffffffffffffffffffffffffffffff1602179055505b6112c5338484611ad2565b6112ce82610b21565b6112f2604051806060016040528060328152602001614c166032913983338661246c565b505050565b6060600180546113069061489f565b80601f01602080910402602001604051908101604052809291908181526020018280546113329061489f565b801561137f5780601f106113545761010080835404028352916020019161137f565b820191906000526020600020905b81548152906001019060200180831161136257829003601f168201915b5050505050905090565b600f5481565b6113a161139a611852565b838361250e565b5050565b6113b66113b0611852565b836119f4565b6113f5576040517f08c379a00000000000000000000000000000000000000000000000000000000081526004016113ec90614376565b60405180910390fd5b6114018484848461267b565b50505050565b6060611412826117e6565b611451576040517f08c379a000000000000000000000000000000000000000000000000000000000815260040161144890614256565b60405180910390fd5b60006006600084815260200190815260200160002080546114719061489f565b80601f016020809104026020016040519081016040528092919081815260200182805461149d9061489f565b80156114ea5780601f106114bf576101008083540402835291602001916114ea565b820191906000526020600020905b8154815290600101906020018083116114cd57829003601f168201915b5050505050905060006114fb6126d7565b9050600081511415611511578192505050611554565b60008251111561154657808260405160200161152e929190613db7565b60405160208183030381529060405292505050611554565b61154f846126ee565b925050505b919050565b6000611563611852565b73ffffffffffffffffffffffffffffffffffffffff16611581610fd4565b73ffffffffffffffffffffffffffffffffffffffff16146115d7576040517f08c379a00000000000000000000000000000000000000000000000000000000081526004016115ce906142b6565b60405180910390fd5b6115e5600a54600b54612795565b905090565b600d5481565b6000600560008473ffffffffffffffffffffffffffffffffffffffff1673ffffffffffffffffffffffffffffffffffffffff16815260200190815260200160002060008373ffffffffffffffffffffffffffffffffffffffff1673ffffffffffffffffffffffffffffffffffffffff16815260200190815260200160002060009054906101000a900460ff16905092915050565b61168c611852565b73ffffffffffffffffffffffffffffffffffffffff166116aa610fd4565b73ffffffffffffffffffffffffffffffffffffffff1614611700576040517f08c379a00000000000000000000000000000000000000000000000000000000081526004016116f7906142b6565b60405180910390fd5b600073ffffffffffffffffffffffffffffffffffffffff168173ffffffffffffffffffffffffffffffffffffffff161415611770576040517f08c379a000000000000000000000000000000000000000000000000000000000815260040161176790614116565b60405180910390fd5b61177981612342565b50565b60007f01ffc9a7000000000000000000000000000000000000000000000000000000007bffffffffffffffffffffffffffffffffffffffffffffffffffffffff1916827bffffffffffffffffffffffffffffffffffffffffffffffffffffffff1916149050919050565b60008073ffffffffffffffffffffffffffffffffffffffff166002600084815260200190815260200160002060009054906101000a900473ffffffffffffffffffffffffffffffffffffffff1673ffffffffffffffffffffffffffffffffffffffff1614159050919050565b600033905090565b816004600083815260200190815260200160002060006101000a81548173ffffffffffffffffffffffffffffffffffffffff021916908373ffffffffffffffffffffffffffffffffffffffff160217905550808273ffffffffffffffffffffffffffffffffffffffff166118cd83610d26565b73ffffffffffffffffffffffffffffffffffffffff167f8c5be1e5ebec7d5bd14f71427d1e84f3dd0314c0f7b2291e5b200ac8c7c3b92560405160405180910390a45050565b600081600001549050919050565b61193b8282604051806020016040528060008152506128f7565b5050565b6119d98383836040516024016119579392919061406c565b6040516020818303038152906040527fe3849f79000000000000000000000000000000000000000000000000000000007bffffffffffffffffffffffffffffffffffffffffffffffffffffffff19166020820180517bffffffffffffffffffffffffffffffffffffffffffffffffffffffff8381831617835250505050612952565b505050565b6001816000016000828254019250508190555050565b60006119ff826117e6565b611a3e576040517f08c379a0000000000000000000000000000000000000000000000000000000008152600401611a3590614196565b60405180910390fd5b6000611a4983610d26565b90508073ffffffffffffffffffffffffffffffffffffffff168473ffffffffffffffffffffffffffffffffffffffff161480611ab857508373ffffffffffffffffffffffffffffffffffffffff16611aa084610767565b73ffffffffffffffffffffffffffffffffffffffff16145b80611ac95750611ac881856115f0565b5b91505092915050565b8273ffffffffffffffffffffffffffffffffffffffff16611af282610d26565b73ffffffffffffffffffffffffffffffffffffffff1614611b48576040517f08c379a0000000000000000000000000000000000000000000000000000000008152600401611b3f906142d6565b60405180910390fd5b600073ffffffffffffffffffffffffffffffffffffffff168273ffffffffffffffffffffffffffffffffffffffff161415611bb8576040517f08c379a0000000000000000000000000000000000000000000000000000000008152600401611baf90614156565b60405180910390fd5b611bc383838361297b565b611bce60008261185a565b6001600360008573ffffffffffffffffffffffffffffffffffffffff1673ffffffffffffffffffffffffffffffffffffffff1681526020019081526020016000206000828254611c1e919061476a565b925050819055506001600360008473ffffffffffffffffffffffffffffffffffffffff1673ffffffffffffffffffffffffffffffffffffffff1681526020019081526020016000206000828254611c759190614475565b92505081905550816002600083815260200190815260200160002060006101000a81548173ffffffffffffffffffffffffffffffffffffffff021916908373ffffffffffffffffffffffffffffffffffffffff160217905550808273ffffffffffffffffffffffffffffffffffffffff168473ffffffffffffffffffffffffffffffffffffffff167fddf252ad1be2c89b69c2b068fc378daa952ba7f163c4a11628f55a4df523b3ef60405160405180910390a4505050565b60606000602867ffffffffffffffff811115611d73577f4e487b7100000000000000000000000000000000000000000000000000000000600052604160045260246000fd5b6040519080825280601f01601f191660200182016040528015611da55781602001600182028036833780820191505090505b50905060005b6014811015611f59576000816013611dc3919061476a565b6008611dcf91906146d5565b6002611ddb91906145b7565b8573ffffffffffffffffffffffffffffffffffffffff16611dfc9190614502565b60f81b9050600060108260f81c611e139190614533565b60f81b905060008160f81c6010611e2a919061472f565b8360f81c611e38919061479e565b60f81b9050611e4682612980565b85856002611e5491906146d5565b81518110611e8b577f4e487b7100000000000000000000000000000000000000000000000000000000600052603260045260246000fd5b60200101907effffffffffffffffffffffffffffffffffffffffffffffffffffffffffffff1916908160001a905350611ec381612980565b856001866002611ed391906146d5565b611edd9190614475565b81518110611f14577f4e487b7100000000000000000000000000000000000000000000000000000000600052603260045260246000fd5b60200101907effffffffffffffffffffffffffffffffffffffffffffffffffffffffffffff1916908160001a9053505050508080611f51906148d1565b915050611dab565b5080915050919050565b60606000821415611fab576040518060400160405280600181526020017f3000000000000000000000000000000000000000000000000000000000000000815250905061210b565b600082905060005b60008214611fdd578080611fc6906148d1565b915050600a82611fd69190614502565b9150611fb3565b60008167ffffffffffffffff81111561201f577f4e487b7100000000000000000000000000000000000000000000000000000000600052604160045260246000fd5b6040519080825280601f01601f1916602001820160405280156120515781602001600182028036833780820191505090505b5090505b600085146121045760018261206a919061476a565b9150600a85612079919061492e565b60306120859190614475565b60f81b8183815181106120c1577f4e487b7100000000000000000000000000000000000000000000000000000000600052603260045260246000fd5b60200101907effffffffffffffffffffffffffffffffffffffffffffffffffffffffffffff1916908160001a905350600a856120fd9190614502565b9450612055565b8093505050505b919050565b6060600082519050600081141561213957604051806020016040528060008152509150506122c9565b6000600360028361214a9190614475565b6121549190614502565b600461216091906146d5565b905060006020826121719190614475565b67ffffffffffffffff8111156121b0577f4e487b7100000000000000000000000000000000000000000000000000000000600052604160045260246000fd5b6040519080825280601f01601f1916602001820160405280156121e25781602001600182028036833780820191505090505b5090506000604051806060016040528060408152602001614c6d604091399050600181016020830160005b868110156122865760038101905062ffffff818a015116603f8160121c168401518060081b905060ff603f83600c1c1686015116810190508060081b905060ff603f8360061c1686015116810190508060081b905060ff603f831686015116810190508060e01b9050808452600484019350505061220d565b5060038606600181146122a057600281146122b0576122bb565b613d3d60f01b60028303526122bb565b603d60f81b60018303525b508484525050819450505050505b919050565b6122d7826117e6565b612316576040517f08c379a000000000000000000000000000000000000000000000000000000000815260040161230d90614216565b60405180910390fd5b8060066000848152602001908152602001600020908051906020019061233d929190612dad565b505050565b6000600760009054906101000a900473ffffffffffffffffffffffffffffffffffffffff16905081600760006101000a81548173ffffffffffffffffffffffffffffffffffffffff021916908373ffffffffffffffffffffffffffffffffffffffff1602179055508173ffffffffffffffffffffffffffffffffffffffff168173ffffffffffffffffffffffffffffffffffffffff167f8be0079c531659141344cd1fd0a4f28419497f9722a3daafe3b4186f6b6457e060405160405180910390a35050565b80600c819055505050565b60006001600e54600c548461242891906146d5565b6040516020016124389190613ee6565b6040516020818303038152906040528051906020012060001c61245b919061492e565b6124659190614475565b9050919050565b6125088484848460405160240161248694939291906140aa565b6040516020818303038152906040527feac89281000000000000000000000000000000000000000000000000000000007bffffffffffffffffffffffffffffffffffffffffffffffffffffffff19166020820180517bffffffffffffffffffffffffffffffffffffffffffffffffffffffff8381831617835250505050612952565b50505050565b8173ffffffffffffffffffffffffffffffffffffffff168373ffffffffffffffffffffffffffffffffffffffff16141561257d576040517f08c379a000000000000000000000000000000000000000000000000000000000815260040161257490614176565b60405180910390fd5b80600560008573ffffffffffffffffffffffffffffffffffffffff1673ffffffffffffffffffffffffffffffffffffffff16815260200190815260200160002060008473ffffffffffffffffffffffffffffffffffffffff1673ffffffffffffffffffffffffffffffffffffffff16815260200190815260200160002060006101000a81548160ff0219169083151502179055508173ffffffffffffffffffffffffffffffffffffffff168373ffffffffffffffffffffffffffffffffffffffff167f17307eab39ab6107e8899845ad3d59bd9653f200f220920489ca2b5937696c318360405161266e9190613fa6565b60405180910390a3505050565b612686848484611ad2565b612692848484846129c6565b6126d1576040517f08c379a00000000000000000000000000000000000000000000000000000000081526004016126c8906140f6565b60405180910390fd5b50505050565b606060405180602001604052806000815250905090565b60606126f9826117e6565b612738576040517f08c379a000000000000000000000000000000000000000000000000000000000815260040161272f906142f6565b60405180910390fd5b60006127426126d7565b90506000815111612762576040518060200160405280600081525061278d565b8061276c84611f63565b60405160200161277d929190613db7565b6040516020818303038152906040525b915050919050565b60007f000000000000000000000000000000000000000000000000000000000000000073ffffffffffffffffffffffffffffffffffffffff16634000aea07f000000000000000000000000000000000000000000000000000000000000000084866000604051602001612809929190613fdc565b6040516020818303038152906040526040518463ffffffff1660e01b815260040161283693929190613f68565b602060405180830381600087803b15801561285057600080fd5b505af1158015612864573d6000803e3d6000fd5b505050506040513d601f19601f8201168201806040525081019061288891906130f2565b5060006128ab846000306008600089815260200190815260200160002054612b5d565b9050600160086000868152602001908152602001600020546128cd9190614475565b60086000868152602001908152602001600020819055506128ee8482612b99565b91505092915050565b6129018383612bcc565b61290e60008484846129c6565b61294d576040517f08c379a0000000000000000000000000000000000000000000000000000000008152600401612944906140f6565b60405180910390fd5b505050565b60008151905060006a636f6e736f6c652e6c6f679050602083016000808483855afa5050505050565b505050565b6000600a8260f81c60ff1610156129ab5760308260f81c6129a191906144cb565b60f81b90506129c1565b60578260f81c6129bb91906144cb565b60f81b90505b919050565b60006129e78473ffffffffffffffffffffffffffffffffffffffff16612d9a565b15612b50578373ffffffffffffffffffffffffffffffffffffffff1663150b7a02612a10611852565b8786866040518563ffffffff1660e01b8152600401612a329493929190613f1c565b602060405180830381600087803b158015612a4c57600080fd5b505af1925050508015612a7d57506040513d601f19601f82011682018060405250810190612a7a9190613180565b60015b612b00573d8060008114612aad576040519150601f19603f3d011682016040523d82523d6000602084013e612ab2565b606091505b50600081511415612af8576040517f08c379a0000000000000000000000000000000000000000000000000000000008152600401612aef906140f6565b60405180910390fd5b805181602001fd5b63150b7a0260e01b7bffffffffffffffffffffffffffffffffffffffffffffffffffffffff1916817bffffffffffffffffffffffffffffffffffffffffffffffffffffffff191614915050612b55565b600190505b949350505050565b600084848484604051602001612b769493929190614005565b6040516020818303038152906040528051906020012060001c9050949350505050565b60008282604051602001612bae929190613d8b565b60405160208183030381529060405280519060200120905092915050565b600073ffffffffffffffffffffffffffffffffffffffff168273ffffffffffffffffffffffffffffffffffffffff161415612c3c576040517f08c379a0000000000000000000000000000000000000000000000000000000008152600401612c3390614236565b60405180910390fd5b612c45816117e6565b15612c85576040517f08c379a0000000000000000000000000000000000000000000000000000000008152600401612c7c90614136565b60405180910390fd5b612c916000838361297b565b6001600360008473ffffffffffffffffffffffffffffffffffffffff1673ffffffffffffffffffffffffffffffffffffffff1681526020019081526020016000206000828254612ce19190614475565b92505081905550816002600083815260200190815260200160002060006101000a81548173ffffffffffffffffffffffffffffffffffffffff021916908373ffffffffffffffffffffffffffffffffffffffff160217905550808273ffffffffffffffffffffffffffffffffffffffff16600073ffffffffffffffffffffffffffffffffffffffff167fddf252ad1be2c89b69c2b068fc378daa952ba7f163c4a11628f55a4df523b3ef60405160405180910390a45050565b600080823b905060008111915050919050565b828054612db99061489f565b90600052602060002090601f016020900481019282612ddb5760008555612e22565b82601f10612df457805160ff1916838001178555612e22565b82800160010185558215612e22579182015b82811115612e21578251825591602001919060010190612e06565b5b509050612e2f9190612e33565b5090565b5b80821115612e4c576000816000905550600101612e34565b5090565b6000612e63612e5e84614402565b6143d1565b905082815260208101848484011115612e7b57600080fd5b612e8684828561485d565b509392505050565b600081359050612e9d81614a39565b92915050565b600081359050612eb281614a50565b92915050565b600081519050612ec781614a50565b92915050565b600081359050612edc81614a67565b92915050565b600081359050612ef181614a7e565b92915050565b600081519050612f0681614a7e565b92915050565b600082601f830112612f1d57600080fd5b8135612f2d848260208601612e50565b91505092915050565b600081359050612f4581614a95565b92915050565b600060208284031215612f5d57600080fd5b6000612f6b84828501612e8e565b91505092915050565b60008060408385031215612f8757600080fd5b6000612f9585828601612e8e565b9250506020612fa685828601612e8e565b9150509250929050565b600080600060608486031215612fc557600080fd5b6000612fd386828701612e8e565b9350506020612fe486828701612e8e565b9250506040612ff586828701612f36565b9150509250925092565b6000806000806080858703121561301557600080fd5b600061302387828801612e8e565b945050602061303487828801612e8e565b935050604061304587828801612f36565b925050606085013567ffffffffffffffff81111561306257600080fd5b61306e87828801612f0c565b91505092959194509250565b6000806040838503121561308d57600080fd5b600061309b85828601612e8e565b92505060206130ac85828601612ea3565b9150509250929050565b600080604083850312156130c957600080fd5b60006130d785828601612e8e565b92505060206130e885828601612f36565b9150509250929050565b60006020828403121561310457600080fd5b600061311284828501612eb8565b91505092915050565b6000806040838503121561312e57600080fd5b600061313c85828601612ecd565b925050602061314d85828601612f36565b9150509250929050565b60006020828403121561316957600080fd5b600061317784828501612ee2565b91505092915050565b60006020828403121561319257600080fd5b60006131a084828501612ef7565b91505092915050565b6000602082840312156131bb57600080fd5b60006131c984828501612f36565b91505092915050565b6131db816147d2565b82525050565b6131ea816147e4565b82525050565b6131f9816147f0565b82525050565b61321061320b826147f0565b61491a565b82525050565b600061322182614432565b61322b8185614448565b935061323b81856020860161486c565b61324481614a1b565b840191505092915050565b600061325a8261443d565b6132648185614459565b935061327481856020860161486c565b61327d81614a1b565b840191505092915050565b60006132938261443d565b61329d818561446a565b93506132ad81856020860161486c565b80840191505092915050565b60006132c6605d8361446a565b91507f222c20226465736372697074696f6e223a20224120707572656c79204f6e2d4360008301527f6861696e2044796e616d6963204e46542047616d652e222c2022696d6167652260208301527f3a2022646174613a696d6167652f7376672b786d6c3b6261736536342c0000006040830152605d82019050919050565b6000613352603283614459565b91507f4552433732313a207472616e7366657220746f206e6f6e20455243373231526560008301527f63656976657220696d706c656d656e74657200000000000000000000000000006020830152604082019050919050565b60006133b8602683614459565b91507f4f776e61626c653a206e6577206f776e657220697320746865207a65726f206160008301527f64647265737300000000000000000000000000000000000000000000000000006020830152604082019050919050565b600061341e601c83614459565b91507f4552433732313a20746f6b656e20616c7265616479206d696e746564000000006000830152602082019050919050565b600061345e601f8361446a565b91507f3c2f747370616e3e3c747370616e20783d273530252720793d27383025273e006000830152601f82019050919050565b600061349e602483614459565b91507f4552433732313a207472616e7366657220746f20746865207a65726f2061646460008301527f72657373000000000000000000000000000000000000000000000000000000006020830152604082019050919050565b6000613504601983614459565b91507f4552433732313a20617070726f766520746f2063616c6c6572000000000000006000830152602082019050919050565b6000613544601f8361446a565b91507f3c2f747370616e3e3c747370616e20783d273530252720793d27353025273e006000830152601f82019050919050565b6000613584602c83614459565b91507f4552433732313a206f70657261746f7220717565727920666f72206e6f6e657860008301527f697374656e7420746f6b656e00000000000000000000000000000000000000006020830152604082019050919050565b60006135ea603f8361446a565b91507f204d696e74656420546865204e46543c2f747370616e3e3c747370616e20783d60008301527f273530252720793d27363025273e5472616e736665727320446f6e65203d20006020830152603f82019050919050565b6000613650603883614459565b91507f4552433732313a20617070726f76652063616c6c6572206973206e6f74206f7760008301527f6e6572206e6f7220617070726f76656420666f7220616c6c00000000000000006020830152604082019050919050565b60006136b6602a83614459565b91507f4552433732313a2062616c616e636520717565727920666f7220746865207a6560008301527f726f2061646472657373000000000000000000000000000000000000000000006020830152604082019050919050565b600061371c602983614459565b91507f4552433732313a206f776e657220717565727920666f72206e6f6e657869737460008301527f656e7420746f6b656e00000000000000000000000000000000000000000000006020830152604082019050919050565b6000613782602e83614459565b91507f45524337323155524953746f726167653a2055524920736574206f66206e6f6e60008301527f6578697374656e7420746f6b656e0000000000000000000000000000000000006020830152604082019050919050565b60006137e860228361446a565b91507f3c747370616e20783d273530252720793d27343025273e546f6b656e2049642060008301527f3d200000000000000000000000000000000000000000000000000000000000006020830152602282019050919050565b600061384e60028361446a565b91507f227d0000000000000000000000000000000000000000000000000000000000006000830152600282019050919050565b600061388e602083614459565b91507f4552433732313a206d696e7420746f20746865207a65726f20616464726573736000830152602082019050919050565b60006138ce603183614459565b91507f45524337323155524953746f726167653a2055524920717565727920666f722060008301527f6e6f6e6578697374656e7420746f6b656e0000000000000000000000000000006020830152604082019050919050565b6000613934601183614459565b91507f414c4c20544f4b454e53204d494e5445440000000000000000000000000000006000830152602082019050919050565b6000613974602c83614459565b91507f4552433732313a20617070726f76656420717565727920666f72206e6f6e657860008301527f697374656e7420746f6b656e00000000000000000000000000000000000000006020830152604082019050919050565b60006139da602083614459565b91507f4f776e61626c653a2063616c6c6572206973206e6f7420746865206f776e65726000830152602082019050919050565b6000613a1a602983614459565b91507f4552433732313a207472616e73666572206f6620746f6b656e2074686174206960008301527f73206e6f74206f776e00000000000000000000000000000000000000000000006020830152604082019050919050565b6000613a80602f83614459565b91507f4552433732314d657461646174613a2055524920717565727920666f72206e6f60008301527f6e6578697374656e7420746f6b656e00000000000000000000000000000000006020830152604082019050919050565b6000613ae6601f83614459565b91507f4f6e6c7920565246436f6f7264696e61746f722063616e2066756c66696c6c006000830152602082019050919050565b6000613b26600d83614459565b91507f5052494345204e4f54204d4554000000000000000000000000000000000000006000830152602082019050919050565b6000613b66602183614459565b91507f4552433732313a20617070726f76616c20746f2063757272656e74206f776e6560008301527f72000000000000000000000000000000000000000000000000000000000000006020830152604082019050919050565b6000613bcc601d8361446a565b91507f646174613a6170706c69636174696f6e2f6a736f6e3b6261736536342c0000006000830152601d82019050919050565b6000613c0c60108361446a565b91507f7b226e616d65223a2022504e46542023000000000000000000000000000000006000830152601082019050919050565b6000613c4c603183614459565b91507f4552433732313a207472616e736665722063616c6c6572206973206e6f74206f60008301527f776e6572206e6f7220617070726f7665640000000000000000000000000000006020830152604082019050919050565b6000613cb2601783614459565b91507f63616e6e6f74206769667420746f20796f757273656c660000000000000000006000830152602082019050919050565b6000613cf2600e8361446a565b91507f2077696e73207468652047616d650000000000000000000000000000000000006000830152600e82019050919050565b6000613d3260158361446a565b91507f3c2f747370616e3e3c2f746578743e3c2f7376673e00000000000000000000006000830152601582019050919050565b613d6e81614846565b82525050565b613d85613d8082614846565b614924565b82525050565b6000613d9782856131ff565b602082019150613da78284613d74565b6020820191508190509392505050565b6000613dc38285613288565b9150613dcf8284613288565b91508190509392505050565b6000613de78288613288565b9150613df2826137db565b9150613dfe8287613288565b9150613e0982613537565b9150613e158286613288565b9150613e20826135dd565b9150613e2c8285613288565b9150613e3782613451565b9150613e438284613288565b9150613e4e82613d25565b91508190509695505050505050565b6000613e698284613288565b9150613e7482613ce5565b915081905092915050565b6000613e8a82613bbf565b9150613e968284613288565b915081905092915050565b6000613eac82613bff565b9150613eb88285613288565b9150613ec3826132b9565b9150613ecf8284613288565b9150613eda82613841565b91508190509392505050565b6000613ef28284613d74565b60208201915081905092915050565b6000602082019050613f1660008301846131d2565b92915050565b6000608082019050613f3160008301876131d2565b613f3e60208301866131d2565b613f4b6040830185613d65565b8181036060830152613f5d8184613216565b905095945050505050565b6000606082019050613f7d60008301866131d2565b613f8a6020830185613d65565b8181036040830152613f9c8184613216565b9050949350505050565b6000602082019050613fbb60008301846131e1565b92915050565b6000602082019050613fd660008301846131f0565b92915050565b6000604082019050613ff160008301856131f0565b613ffe6020830184613d65565b9392505050565b600060808201905061401a60008301876131f0565b6140276020830186613d65565b61403460408301856131d2565b6140416060830184613d65565b95945050505050565b60006020820190508181036000830152614064818461324f565b905092915050565b60006060820190508181036000830152614086818661324f565b90506140956020830185613d65565b6140a260408301846131d2565b949350505050565b600060808201905081810360008301526140c4818761324f565b90506140d36020830186613d65565b6140e060408301856131d2565b6140ed60608301846131d2565b95945050505050565b6000602082019050818103600083015261410f81613345565b9050919050565b6000602082019050818103600083015261412f816133ab565b9050919050565b6000602082019050818103600083015261414f81613411565b9050919050565b6000602082019050818103600083015261416f81613491565b9050919050565b6000602082019050818103600083015261418f816134f7565b9050919050565b600060208201905081810360008301526141af81613577565b9050919050565b600060208201905081810360008301526141cf81613643565b9050919050565b600060208201905081810360008301526141ef816136a9565b9050919050565b6000602082019050818103600083015261420f8161370f565b9050919050565b6000602082019050818103600083015261422f81613775565b9050919050565b6000602082019050818103600083015261424f81613881565b9050919050565b6000602082019050818103600083015261426f816138c1565b9050919050565b6000602082019050818103600083015261428f81613927565b9050919050565b600060208201905081810360008301526142af81613967565b9050919050565b600060208201905081810360008301526142cf816139cd565b9050919050565b600060208201905081810360008301526142ef81613a0d565b9050919050565b6000602082019050818103600083015261430f81613a73565b9050919050565b6000602082019050818103600083015261432f81613ad9565b9050919050565b6000602082019050818103600083015261434f81613b19565b9050919050565b6000602082019050818103600083015261436f81613b59565b9050919050565b6000602082019050818103600083015261438f81613c3f565b9050919050565b600060208201905081810360008301526143af81613ca5565b9050919050565b60006020820190506143cb6000830184613d65565b92915050565b6000604051905081810181811067ffffffffffffffff821117156143f8576143f76149ec565b5b8060405250919050565b600067ffffffffffffffff82111561441d5761441c6149ec565b5b601f19601f8301169050602081019050919050565b600081519050919050565b600081519050919050565b600082825260208201905092915050565b600082825260208201905092915050565b600081905092915050565b600061448082614846565b915061448b83614846565b9250827fffffffffffffffffffffffffffffffffffffffffffffffffffffffffffffffff038211156144c0576144bf61495f565b5b828201905092915050565b60006144d682614850565b91506144e183614850565b92508260ff038211156144f7576144f661495f565b5b828201905092915050565b600061450d82614846565b915061451883614846565b9250826145285761452761498e565b5b828204905092915050565b600061453e82614850565b915061454983614850565b9250826145595761455861498e565b5b828204905092915050565b6000808291508390505b60018511156145ae5780860481111561458a5761458961495f565b5b60018516156145995780820291505b80810290506145a785614a2c565b945061456e565b94509492505050565b60006145c282614846565b91506145cd83614846565b92506145fa7fffffffffffffffffffffffffffffffffffffffffffffffffffffffffffffffff8484614602565b905092915050565b60008261461257600190506146ce565b8161462057600090506146ce565b816001811461463657600281146146405761466f565b60019150506146ce565b60ff8411156146525761465161495f565b5b8360020a9150848211156146695761466861495f565b5b506146ce565b5060208310610133831016604e8410600b84101617156146a45782820a90508381111561469f5761469e61495f565b5b6146ce565b6146b18484846001614564565b925090508184048111156146c8576146c761495f565b5b81810290505b9392505050565b60006146e082614846565b91506146eb83614846565b9250817fffffffffffffffffffffffffffffffffffffffffffffffffffffffffffffffff04831182151516156147245761472361495f565b5b828202905092915050565b600061473a82614850565b915061474583614850565b92508160ff048311821515161561475f5761475e61495f565b5b828202905092915050565b600061477582614846565b915061478083614846565b9250828210156147935761479261495f565b5b828203905092915050565b60006147a982614850565b91506147b483614850565b9250828210156147c7576147c661495f565b5b828203905092915050565b60006147dd82614826565b9050919050565b60008115159050919050565b6000819050919050565b60007fffffffff0000000000000000000000000000000000000000000000000000000082169050919050565b600073ffffffffffffffffffffffffffffffffffffffff82169050919050565b6000819050919050565b600060ff82169050919050565b82818337600083830152505050565b60005b8381101561488a57808201518184015260208101905061486f565b83811115614899576000848401525b50505050565b600060028204905060018216806148b757607f821691505b602082108114156148cb576148ca6149bd565b5b50919050565b60006148dc82614846565b91507fffffffffffffffffffffffffffffffffffffffffffffffffffffffffffffffff82141561490f5761490e61495f565b5b600182019050919050565b6000819050919050565b6000819050919050565b600061493982614846565b915061494483614846565b9250826149545761495361498e565b5b828206905092915050565b7f4e487b7100000000000000000000000000000000000000000000000000000000600052601160045260246000fd5b7f4e487b7100000000000000000000000000000000000000000000000000000000600052601260045260246000fd5b7f4e487b7100000000000000000000000000000000000000000000000000000000600052602260045260246000fd5b7f4e487b7100000000000000000000000000000000000000000000000000000000600052604160045260246000fd5b6000601f19601f8301169050919050565b60008160011c9050919050565b614a42816147d2565b8114614a4d57600080fd5b50565b614a59816147e4565b8114614a6457600080fd5b50565b614a70816147f0565b8114614a7b57600080fd5b50565b614a87816147fa565b8114614a9257600080fd5b50565b614a9e81614846565b8114614aa957600080fd5b5056fe3c73766720786d6c6e733d27687474703a2f2f7777772e77332e6f72672f323030302f73766727202076696577426f783d2730203020313030302031303030273e3c7374796c653e2e62617365207b2066696c6c3a2077686974653b20666f6e742d66616d696c793a2073616e732d73657269663b20666f6e742d73697a653a20333070783b207d3c2f7374796c653e3c726563742077696474683d273130302527206865696768743d2731303025272066696c6c3d27626c61636b27207374726f6b653d2770696e6b27207374726f6b652d77696474683d273325272066696c6c2d6f7061636974793d27302e3927207374726f6b652d6f7061636974793d2731272f3e3c7465787420783d273530252720793d273230252720636c6173733d27626173652720646f6d696e616e742d626173656c696e653d276d6964646c652720746578742d616e63686f723d276d6964646c65273e5061737320546865204e46542047616d65416e204e465420772f20494420257320686173206265656e207472616e736665727265642066726f6d20257320746f202573416e204e465420772f20494420257320686173206265656e206d696e74656420746f2025734142434445464748494a4b4c4d4e4f505152535455565758595a6162636465666768696a6b6c6d6e6f707172737475767778797a303132333435363738392b2fa2646970667358221220a4864b5da3a7f0b726f0280c5e3b81f33b266c2894c53f4ff55cd8462bc1a54264736f6c63430008000033",
  "linkReferences": {},
  "deployedLinkReferences": {}
}